:100000000C9434000C943E000C943E000C943E0082
:100010000C943E000C943E000C943E000C943E0068
:100020000C943E000C943E000C943E000C943E0058
:100030000C943E000C943E000C943E000C943E0048
:100040000C943E000C943E000C943E000C943E0038
:100050000C943E000C943E000C943E000C943E0028
:100060000C943E000C943E0011241FBECFEFD8E04C
:10007000DEBFCDBF0E9440000C948C000C940000A9
:10008000CF93DF9300D000D000D0CDB7DEB784E2AD
:1000900090E0FC01208184E290E02062FC0120835A
:1000A00084E290E0FC01208184E290E02F7EFC015C
:1000B000208385E290E0FC01208185E290E02062CF
:1000C000FC01208319820BC01C821B828B819C81C6
:1000D0000197F1F79C838B8389818F5F8983898165
:1000E000853190F385E290E0FC01208185E290E08B
:1000F0002F7DFC0120831A820BC01E821D828D8100
:100100009E810197F1F79E838D838A818F5F8A8319
:0C0110008A81853190F3CDCFF894FFCFA9
:00000001FF
