:100000000C9434000C9451000C9451000C94510049
:100010000C9451000C9451000C9451000C9451001C
:100020000C9451000C9451000C9451000C9451000C
:100030000C9451000C9451000C9451000C945100FC
:100040000C9451000C9451000C949A000C945100A3
:100050000C9451000C9451000C9451000C945100DC
:100060000C9451000C94510011241FBECFEFD8E026
:10007000DEBFCDBF11E0A0E0B1E0EAE2F3E002C0F4
:1000800005900D92A630B107D9F721E0A6E0B1E0C6
:1000900001C01D92AC31B207E1F70E9453000C94ED
:1000A00093010C940000CF93DF93CDB7DEB7659733
:1000B0000FB6F894DEBF0FBECDBF84E290E0FC0126
:1000C000208184E290E02062FC01208360E875E2F8
:1000D00080E090E00E94E30078940E9424018983EC
:1000E00089818130D1F7CE0102960E942D01CE0187
:1000F000029660E071E00E948301892B49F485E259
:1001000090E0FC01208185E290E02062FC012083E8
:10011000CE01029663E071E00E948301892BE9F62B
:1001200085E290E0FC01208185E290E02F7DFC01DA
:100130002083D3CF1F920F920FB60F9211242F93CB
:100140003F938F939F93EF93FF93CF93DF93CDB71D
:10015000DEB726EC30E080911A01882F90E0F9019B
:1001600020818A5F9E4FFC01208380911A01882F95
:1001700090E08A5F9E4FFC0180818A3059F481E0D3
:1001800080931B0180911A01882F90E08A5F9E4F17
:10019000FC01108280911A018F5F80931A01809177
:1001A0001A01833111F410921A010000DF91CF91EE
:1001B000FF91EF919F918F913F912F910F900FBEE3
:1001C0000F901F901895CF93DF9300D000D000D0F0
:1001D000CDB7DEB76B837C838D839E8380E492E40E
:1001E000AFE0B0E02B813C814D815E81BC01CD014F
:1001F0000E946101DA01C90101979A83898389818B
:100200009A81292F332785EC90E0FC01208384EC30
:1002100090E02981FC01208382EC90E026E0FC0143
:10022000208381EC90E028E9FC01208310921A01E0
:1002300010921B01000026960FB6F894DEBF0FBE89
:10024000CDBFDF91CF910895CF93DF93CDB7DEB7C8
:1002500080911B01DF91CF910895CF93DF9300D060
:10026000CDB7DEB79A838983F89489819A8166E055
:1002700071E00E948C0110921B0110921A01789477
:1002800000000F900F90DF91CF910895CF93DF93EF
:100290001F92CDB7DEB78983000080EC90E0FC01AF
:1002A0008081882F90E080729927892BB1F386ECAA
:1002B00090E02981FC01208300000F90DF91CF9115
:1002C0000895A1E21A2EAA1BBB1BFD010DC0AA1F97
:1002D000BB1FEE1FFF1FA217B307E407F50720F0AF
:1002E000A21BB30BE40BF50B661F771F881F991F2A
:1002F0001A9469F760957095809590959B01AC0173
:10030000BD01CF010895FB01DC018D9101908019A1
:100310000110D9F3990B0895FB01DC0101900D92B6
:0A0320000020E1F70895F894FFCFE4
:06032A005349004E4F0094
:00000001FF
