:100000000C9434000C943E000C943E000C943E0082
:100010000C943E000C943E000C943E000C943E0068
:100020000C943E000C943E000C943E000C943E0058
:100030000C943E000C943E000C943E000C943E0048
:100040000C943E000C943E000C943E000C943E0038
:100050000C943E000C943E000C943E000C943E0028
:100060000C943E000C943E0011241FBECFEFD8E04C
:10007000DEBFCDBF0E9440000C9498000C9400009D
:10008000CF93DF93CDB7DEB728970FB6F894DEBFD6
:100090000FBECDBF84E290E0FC01208184E290E0BD
:1000A0002062FC01208385E290E0FC01208185E252
:1000B00090E02062FC01208319821A821B821C823C
:1000C0000BC089819A81AB81BC810196A11DB11DB4
:1000D00089839A83AB83BC8389819A81AB81BC81FC
:1000E000803A9648A140B10560F385E290E0FC01BA
:1000F000208185E290E02F7DFC0120831D821E82FD
:100100001F8218860BC08D819E81AF81B8850196B4
:10011000A11DB11D8D839E83AF83B8878D819E8184
:10012000AF81B885803A9648A140B10560F3BBCF56
:04013000F894FFCF71
:00000001FF
