:100000000C9434000C943E000C943E000C943E0082
:100010000C943E000C943E000C943E000C943E0068
:100020000C943E000C943E000C943E000C943E0058
:100030000C943E000C943E000C943E000C943E0048
:100040000C943E000C943E000C943E000C943E0038
:100050000C943E000C943E000C943E000C943E0028
:100060000C943E000C943E0011241FBECFEFD8E04C
:10007000DEBFCDBF0E9440000C94F5010C9400003F
:10008000CF93DF93CDB7DEB72D970FB6F894DEBFD1
:100090000FBECDBF84E290E0FC01208184E290E0BD
:1000A0002062FC01208384E290E0FC01208184E254
:1000B00090E02F7EFC01208360E875E280E090E014
:1000C0000E94D00083E290E0FC018081882F90E0C4
:1000D00080719927892B09F459C01B821A828A8161
:1000E0009B810197F1F79B838A83000083E290E074
:1000F000FC018081882F90E080719927892BB1F7CE
:1001000085E290E0FC01208185E290E02062FC0124
:10011000208380E090E00E94DF0189838981882F1D
:1001200090E09E012C5F3F4F4AE050E0B9010E94F1
:100130009F01CE0104960E9428018DE20E940D01CC
:1001400089818F3F09F4198289818F5F89838FE3C9
:1001500090E0FC018081882F90E082709927892BA4
:10016000B1F7698180E090E00E94E7018981882FE2
:1001700090E09E012C5F3F4F4AE050E0B9010E94A1
:100180009F01CE0104960E9447019CCF85E290E03A
:10019000FC01208185E290E02F7DFC01208392CF3D
:1001A000CF93DF9300D000D000D0CDB7DEB76B8304
:1001B0007C838D839E8380E492E4AFE0B0E02B816A
:1001C0003C814D815E81BC01CD010E947D01DA013F
:1001D000C90101979A83898389819A81292F3327BD
:1001E00085EC90E0FC01208384EC90E02981FC0107
:1001F000208382EC90E026E0FC01208381EC90E0FB
:1002000028E1FC012083000026960FB6F894DEBF9B
:100210000FBECDBFDF91CF910895CF93DF931F9293
:10022000CDB7DEB78983000080EC90E0FC018081CF
:10023000882F90E080729927892BB1F386EC90E0AB
:100240002981FC01208300000F90DF91CF91089558
:10025000CF93DF9300D0CDB7DEB79A8389830BC0ED
:1002600089819A81FC0180810E940D0189819A8196
:1002700001969A83898389819A81FC0180818823F0
:1002800079F700000F900F90DF91CF910895CF93F1
:10029000DF9300D0CDB7DEB79A83898389819A81B5
:1002A0000E9428018AE00E940D0100000F900F902B
:1002B000DF91CF910895CF93DF93CDB7DEB780EC78
:1002C00090E0FC018081882314F481E001C080E08B
:1002D000DF91CF910895CF93DF93CDB7DEB70000C4
:1002E00080EC90E0FC0180818823D4F786EC90E0DC
:1002F000FC018081DF91CF910895A1E21A2EAA1B03
:10030000BB1BFD010DC0AA1FBB1FEE1FFF1FA217C5
:10031000B307E407F50720F0A21BB30BE40BF50BC2
:10032000661F771F881F991F1A9469F7609570954B
:10033000809590959B01AC01BD01CF010895453298
:10034000510520F4423010F00C94AA01FB011082F8
:10035000CB010895BB274A3031F4992322F4BDE242
:10036000909581959F4F0C94B601BB27FB015527B3
:10037000AA27880F991FAA1FA41710F0A41B839502
:100380005051B9F7A05DAA3308F0A95DA193009779
:1003900079F7B111B1931192CB010C94CF01DC012B
:1003A000FC01672F71917723E1F7329704C07C91AC
:1003B0006D9370836291AE17BF07C8F30895F999E2
:1003C000FECF92BD81BDF89A992780B50895262F5A
:1003D000F999FECF1FBA92BD81BD20BD0FB6F8942A
:0E03E000FA9AF99A0FBE01960895F894FFCF8D
:00000001FF
