:100000000C9434000C943E000C943E000C943E0082
:100010000C943E000C943E000C943E000C943E0068
:100020000C943E000C943E000C943E000C943E0058
:100030000C943E000C943E000C943E000C943E0048
:100040000C943E000C943E000C943E000C943E0038
:100050000C943E000C943E000C943E000C943E0028
:100060000C943E000C943E0011241FBECFEFD8E04C
:10007000DEBFCDBF0E9440000C9474000C940000C1
:10008000CF93DF93CDB7DEB784E290E0FC0120810F
:1000900084E290E02062FC01208384E290E0FC0195
:1000A000208184E290E02F7EFC01208383E290E0B7
:1000B000FC018081882F90E080719927892B51F075
:1000C00085E290E0FC01208185E290E02062FC0165
:1000D0002083ECCF85E290E0FC01208185E290E076
:0C00E0002F7DFC012083E2CFF894FFCFBD
:00000001FF
