:100000000C9434000C943E000C943E000C943E0082
:100010000C943E000C943E000C943E000C943E0068
:100020000C943E000C943E000C943E000C943E0058
:100030000C943E000C943E000C943E000C943E0048
:100040000C943E000C943E000C943E000C943E0038
:100050000C943E000C943E000C943E000C943E0028
:100060000C943E000C943E0011241FBECFEFD8E04C
:10007000DEBFCDBF0E9494000C9409010C940000D7
:10008000569A14BC80E884BD84B5836084BD15BCD9
:1000900082E085BDEEE6F0E08081887F8083089570
:1000A0002FEF829FC001112464E670E00E94D3000C
:1000B00067BD08959B01AC0160E472E48FE090E0BD
:1000C0000E94E700215031093093C5002093C400FD
:1000D00086E08093C20088E18093C10008959091EA
:1000E000C00095FFFCCF8093C6000895CF93DF93A7
:1000F000EC018991811103C0DF91CF9108950E9495
:100100006F00F7CF0E9476008AE00C946F00809118
:10011000C000881F8827881F08958091C00087FF2E
:10012000FCCF8091C60008950E9440008AE00E94A2
:1001300050002FEF87EA91E6215080409040E1F790
:1001400000C000008EE10E9450002FEF87EA91E688
:10015000215080409040E1F700C0000082E30E94FF
:1001600050002FEF87EA91E6215080409040E1F760
:1001700000C0000086E40E9450002FEF87EA91E65D
:10018000215080409040E1F700C0000084E60E94CA
:1001900050002FEF87EA91E6215080409040E1F730
:1001A00000C00000C3CFAA1BBB1B51E107C0AA1FA0
:1001B000BB1FA617B70710F0A61BB70B881F991F08
:1001C0005A95A9F780959095BC01CD010895A1E2BB
:1001D0001A2EAA1BBB1BFD010DC0AA1FBB1FEE1FC1
:1001E000FF1FA217B307E407F50720F0A21BB30B0C
:1001F000E40BF50B661F771F881F991F1A9469F788
:1002000060957095809590959B01AC01BD01CF01E3
:060210000895F894FFCFF1
:00000001FF
