:100000000C9434000C9451000C9451000C94510049
:100010000C9451000C9451000C9451000C9451001C
:100020000C9451000C9451000C9451000C9451000C
:100030000C9451000C9451000C9451000C945100FC
:100040000C9451000C9451000C9451000C945100EC
:100050000C9451000C94B4000C9451000C94510079
:100060000C9451000C94510011241FBECFEFD8E026
:10007000DEBFCDBF11E0A0E0B1E0E4EDF7E002C0EB
:1000800005900D92A433B107D9F721E0A4E3B1E0C4
:1000900001C01D92AA33B207E1F70E9453000C94ED
:1000A000E8030C940000CF93DF93CDB7DEB76097E1
:1000B0000FB6F894DEBF0FBECDBF84E290E0FC0126
:1000C000208184E290E02062FC01208360E875E2F8
:1000D00080E090E00E94D30280E090E00E94110254
:1000E00081E090E00E94860280E090E00E94A701FB
:1000F00081E00E944D01789484E091E00E944A03DF
:10010000F89480913801909139019E838D83789481
:100110008DE191E00E944A038D819E819E01295FBD
:100120003F4F4AE050E0B9010E94A803CE01079674
:100130000E944A0319821A821B821C820BC0898189
:100140009A81AB81BC810196A11DB11D89839A83DF
:10015000AB83BC8389819A81AB81BC81803197421A
:10016000A105B10560F3C8CF1F920F920FB60F9291
:1001700011242F938F939F93AF93BF93EF93FF938C
:10018000CF93DF93CDB7DEB780910001909101014D
:10019000A0910201B09103010197A105B10551F4AD
:1001A00085E290E0FC01208185E290E02062FC0184
:1001B000208309C085E290E0FC01208185E290E087
:1001C0002F7DFC0120838091340190913501A09115
:1001D0003601B09137010196A11DB11D8093340104
:1001E00090933501A0933601B0933701809134018B
:1001F00090913501A0913601B0913701803A96482F
:10020000A140B10549F58091000190910101A091B3
:100210000201B09103010197A105B10549F41092C3
:1002200000011092010110920201109203010CC012
:1002300081E090E0A0E0B0E08093000190930101A4
:10024000A0930201B0930301109234011092350182
:10025000109236011092370188E790E0FC0180810E
:10026000918190933901809338018AE790E0FC01F5
:1002700020818AE790E02064FC0120830000DF9168
:10028000CF91FF91EF91BF91AF919F918F912F915E
:100290000F900FBE0F901F901895CF93DF931F9272
:1002A000CDB7DEB789838981882351F08AE790E052
:1002B000FC0120818AE790E02068FC01208309C0CE
:1002C0008AE790E0FC0120818AE790E02F77FC012B
:1002D00020838981882351F080E590E0FC01208112
:1002E00080E590E02F77FC01208309C080E590E055
:1002F000FC01208180E590E02068FC0120838AE7F2
:1003000090E0FC0120818AE790E02864FC012083D2
:1003100000000F90DF91CF910895CF93DF93CDB779
:10032000DEB784E690E0FC01208184E690E02E7F39
:10033000FC0120838AE790E0FC0120818AE790E0BD
:100340002064FC0120830000DF91CF910895CF93BA
:10035000DF9300D0CDB7DEB79A83898389819A81F4
:10036000CC01A0E0B0E087309105A105B10508F00F
:1003700052C082549E4FFC010C94A203C501CF01D0
:10038000D901E301ED01F70101028AE790E0FC01E8
:1003900020818AE790E0287FFC0120833CC08CE725
:1003A00090E0FC0120818CE790E02260FC0120833A
:1003B00032C08CE790E0FC0120818CE790E0236064
:1003C000FC01208328C08CE790E0FC0120818CE7B1
:1003D00090E02460FC0120831EC08CE790E0FC01CB
:1003E00020818CE790E02560FC01208314C08CE71D
:1003F00090E0FC0120818CE790E02660FC012083E6
:100400000AC08CE790E0FC0120818CE790E0276037
:10041000FC012083000000000F900F90DF91CF912E
:100420000895CF93DF9300D0CDB7DEB79A83898349
:1004300089819A81CC01A0E0B0E088309105A105C6
:10044000B10508F05DC0885D9D4FFC010C94A203CE
:1004500030023A0244024E02580262026C027602F4
:100460008CE790E0FC0120818CE790E0207FFC018C
:10047000208346C08CE790E0FC0120818CE790E06F
:100480002160FC0120833CC08CE790E0FC012081CE
:100490008CE790E02260FC01208332C08CE790E082
:1004A000FC0120818CE790E02360FC01208328C0C0
:1004B0008CE790E0FC0120818CE790E02460FC0157
:1004C00020831EC08CE790E0FC0120818CE790E047
:1004D0002560FC01208314C08CE790E0FC012081A2
:1004E0008CE790E02660FC0120830AC08CE790E056
:1004F000FC0120818CE790E02760FC012083000054
:1005000000000F900F90DF91CF910895CF93DF936C
:1005100000D0CDB7DEB79A83898389819A818130F3
:10052000910581F08130910518F00297A9F01EC065
:100530008CE790E0FC0120818CE790E02F73FC01B8
:10054000208314C08CE790E0FC0120818CE790E0D0
:100550002064FC0120830AC08CE790E0FC0120812C
:100560008CE790E0206CFC012083000000000F90DD
:100570000F90DF91CF910895CF93DF93CDB7DEB782
:1005800000008AE790E0FC018081882F90E0807471
:100590009927892BB1F788E790E0FC018081918150
:1005A000DF91CF910895CF93DF9300D000D000D09A
:1005B000CDB7DEB76B837C838D839E8380E492E42A
:1005C000AFE0B0E02B813C814D815E81BC01CD016B
:1005D0000E948003DA01C90101979A838983898186
:1005E0009A81292F332785EC90E0FC01208384EC4D
:1005F00090E02981FC01208382EC90E026E0FC0160
:10060000208381EC90E028E1FC0120830000269605
:100610000FB6F894DEBF0FBECDBFDF91CF91089526
:10062000CF93DF931F92CDB7DEB78983000080ECB4
:1006300090E0FC018081882F90E080729927892BBF
:10064000B1F386EC90E02981FC01208300000F903B
:10065000DF91CF910895CF93DF9300D0CDB7DEB770
:100660009A8389830BC089819A81FC0180810E94D1
:10067000100389819A8101969A83898389819A815D
:10068000FC018081882379F700000F900F90DF91A3
:10069000CF910895CF93DF9300D0CDB7DEB79A8383
:1006A000898389819A810E942B038AE00E9410032A
:1006B00000000F900F90DF91CF910895CF93DF93BB
:1006C000CDB7DEB780EC90E0FC018081882314F484
:1006D00081E001C080E0DF91CF910895CF93DF9357
:1006E000CDB7DEB7000080EC90E0FC01808188236C
:1006F000D4F786EC90E0FC018081DF91CF910895E2
:10070000A1E21A2EAA1BBB1BFD010DC0AA1FBB1F15
:10071000EE1FFF1FA217B307E407F50720F0A21B87
:10072000B30BE40BF50B661F771F881F991F1A94F4
:1007300069F760957095809590959B01AC01BD011E
:10074000CF010895EE0FFF1F0590F491E02D09945D
:100750004532510520F4423010F00C94B303FB01F4
:100760001082CB010895BB274A3031F4992322F43B
:10077000BDE2909581959F4F0C94BF03BB27FB0171
:100780005527AA27880F991FAA1FA41710F0A41B8A
:1007900083955051B9F7A05DAA3308F0A95DA193E4
:1007A000009779F7B111B1931192CB010C94D80352
:1007B000DC01FC01672F71917723E1F7329704C0C8
:1007C0007C916D9370836291AE17BF07C8F3089553
:0407D000F894FFCFCB
:1007D400010000004449534142494C4954412047D7
:1007E4004C4920494E5445525255505400414249B7
:1007F4004C49544F20474C4920494E544552525578
:04080400545000004C
:00000001FF
