:100000000C9434000C9449000C9449000C94490061
:100010000C9449000C9449000C9449000C9449003C
:100020000C9449000C9449000C9449000C9449002C
:100030000C9449000C9449000C9449000C9449001C
:100040000C9449000C9449000C9449000C9449000C
:100050000C9449000C9449000C9449000C944900FC
:100060000C9449000C94490011241FBECFEFD8E036
:10007000DEBFCDBF11E0A0E0B1E0E0E2F3E002C0FE
:1000800005900D92AE30B107D9F70E944B000C9449
:100090008E010C940000CF93DF93CDB7DEB7299784
:1000A0000FB6F894DEBF0FBECDBF84E290E0FC0136
:1000B000208184E290E02062FC01208360E875E208
:1000C00080E090E00E94BF0085E290E0FC0120818A
:1000D00085E290E02062FC01208380E091E00E94B4
:1000E000360119821A821B821C820BC089819A8177
:1000F000AB81BC810196A11DB11D89839A83AB831D
:10010000BC8389819A81AB81BC81803A9648A140A9
:10011000B10560F385E290E0FC01208185E290E08A
:100120002F7DFC01208387E091E00E9436011D8233
:100130001E821F8218860BC08D819E81AF81B8857B
:100140000196A11DB11D8D839E83AF83B8878D81DC
:100150009E81AF81B885803A9648A140B10560F391
:100160000E944A01882309F4AFCF0E945A0189876F
:1001700089850E94FC008AE00E94FC00A5CFCF93F5
:10018000DF9300D000D000D0CDB7DEB76B837C8387
:100190008D839E8380E492E4AFE0B0E02B813C81CC
:1001A0004D815E81BC01CD010E946C01DA01C90163
:1001B00001979A83898389819A81292F332785EC36
:1001C00090E0FC01208384EC90E02981FC012083F5
:1001D00082EC90E026E0FC01208381EC90E028E1B5
:1001E000FC012083000026960FB6F894DEBF0FBEF8
:1001F000CDBFDF91CF910895CF93DF931F92CDB7FD
:10020000DEB78983000080EC90E0FC018081882FBC
:1002100090E080729927892BB1F386EC90E02981D8
:10022000FC01208300000F90DF91CF910895CF93C0
:10023000DF9300D0CDB7DEB79A8389830BC0898165
:100240009A81FC0180810E94FC0089819A8101963B
:100250009A83898389819A81FC018081882379F737
:1002600000000F900F90DF91CF910895CF93DF930F
:1002700000D0CDB7DEB79A83898389819A810E94A5
:1002800017018AE00E94FC0000000F900F90DF91A0
:10029000CF910895CF93DF93CDB7DEB780EC90E098
:1002A000FC018081882314F481E001C080E0DF91AB
:1002B000CF910895CF93DF93CDB7DEB7000080ECE8
:1002C00090E0FC0180818823D4F786EC90E0FC016B
:1002D0008081DF91CF910895A1E21A2EAA1BBB1B4A
:1002E000FD010DC0AA1FBB1FEE1FFF1FA217B30702
:1002F000E407F50720F0A21BB30BE40BF50B661F18
:10030000771F881F991F1A9469F7609570958095DB
:1003100090959B01AC01BD01CF010895F894FFCFEA
:0E03200041434345534F005350454E544F0048
:00000001FF
